{
  "_format": "hh-sol-artifact-1",
  "contractName": "TrippyDudesToken",
  "sourceName": "contracts/TrippyDudesToken.sol",
  "abi": [
    {
      "inputs": [
        {
          "internalType": "address",
          "name": "_trippyDudesContract",
          "type": "address"
        }
      ],
      "stateMutability": "nonpayable",
      "type": "constructor"
    },
    {
      "anonymous": false,
      "inputs": [
        {
          "indexed": true,
          "internalType": "address",
          "name": "owner",
          "type": "address"
        },
        {
          "indexed": true,
          "internalType": "address",
          "name": "spender",
          "type": "address"
        },
        {
          "indexed": false,
          "internalType": "uint256",
          "name": "value",
          "type": "uint256"
        }
      ],
      "name": "Approval",
      "type": "event"
    },
    {
      "anonymous": false,
      "inputs": [
        {
          "indexed": true,
          "internalType": "address",
          "name": "previousOwner",
          "type": "address"
        },
        {
          "indexed": true,
          "internalType": "address",
          "name": "newOwner",
          "type": "address"
        }
      ],
      "name": "OwnershipTransferred",
      "type": "event"
    },
    {
      "anonymous": false,
      "inputs": [
        {
          "indexed": true,
          "internalType": "address",
          "name": "from",
          "type": "address"
        },
        {
          "indexed": true,
          "internalType": "address",
          "name": "to",
          "type": "address"
        },
        {
          "indexed": false,
          "internalType": "uint256",
          "name": "value",
          "type": "uint256"
        }
      ],
      "name": "Transfer",
      "type": "event"
    },
    {
      "stateMutability": "payable",
      "type": "fallback"
    },
    {
      "inputs": [
        {
          "internalType": "address",
          "name": "owner",
          "type": "address"
        },
        {
          "internalType": "address",
          "name": "spender",
          "type": "address"
        }
      ],
      "name": "allowance",
      "outputs": [
        {
          "internalType": "uint256",
          "name": "",
          "type": "uint256"
        }
      ],
      "stateMutability": "view",
      "type": "function"
    },
    {
      "inputs": [
        {
          "internalType": "address",
          "name": "spender",
          "type": "address"
        },
        {
          "internalType": "uint256",
          "name": "amount",
          "type": "uint256"
        }
      ],
      "name": "approve",
      "outputs": [
        {
          "internalType": "bool",
          "name": "",
          "type": "bool"
        }
      ],
      "stateMutability": "nonpayable",
      "type": "function"
    },
    {
      "inputs": [
        {
          "internalType": "address",
          "name": "account",
          "type": "address"
        }
      ],
      "name": "balanceOf",
      "outputs": [
        {
          "internalType": "uint256",
          "name": "",
          "type": "uint256"
        }
      ],
      "stateMutability": "view",
      "type": "function"
    },
    {
      "inputs": [],
      "name": "claim",
      "outputs": [],
      "stateMutability": "nonpayable",
      "type": "function"
    },
    {
      "inputs": [],
      "name": "decimals",
      "outputs": [
        {
          "internalType": "uint8",
          "name": "",
          "type": "uint8"
        }
      ],
      "stateMutability": "view",
      "type": "function"
    },
    {
      "inputs": [
        {
          "internalType": "address",
          "name": "spender",
          "type": "address"
        },
        {
          "internalType": "uint256",
          "name": "subtractedValue",
          "type": "uint256"
        }
      ],
      "name": "decreaseAllowance",
      "outputs": [
        {
          "internalType": "bool",
          "name": "",
          "type": "bool"
        }
      ],
      "stateMutability": "nonpayable",
      "type": "function"
    },
    {
      "inputs": [
        {
          "internalType": "address",
          "name": "spender",
          "type": "address"
        },
        {
          "internalType": "uint256",
          "name": "addedValue",
          "type": "uint256"
        }
      ],
      "name": "increaseAllowance",
      "outputs": [
        {
          "internalType": "bool",
          "name": "",
          "type": "bool"
        }
      ],
      "stateMutability": "nonpayable",
      "type": "function"
    },
    {
      "inputs": [],
      "name": "maxTotalSupply",
      "outputs": [
        {
          "internalType": "uint256",
          "name": "",
          "type": "uint256"
        }
      ],
      "stateMutability": "view",
      "type": "function"
    },
    {
      "inputs": [
        {
          "internalType": "uint256",
          "name": "amount",
          "type": "uint256"
        }
      ],
      "name": "mint",
      "outputs": [],
      "stateMutability": "payable",
      "type": "function"
    },
    {
      "inputs": [],
      "name": "name",
      "outputs": [
        {
          "internalType": "string",
          "name": "",
          "type": "string"
        }
      ],
      "stateMutability": "view",
      "type": "function"
    },
    {
      "inputs": [],
      "name": "owner",
      "outputs": [
        {
          "internalType": "address",
          "name": "",
          "type": "address"
        }
      ],
      "stateMutability": "view",
      "type": "function"
    },
    {
      "inputs": [],
      "name": "renounceOwnership",
      "outputs": [],
      "stateMutability": "nonpayable",
      "type": "function"
    },
    {
      "inputs": [],
      "name": "symbol",
      "outputs": [
        {
          "internalType": "string",
          "name": "",
          "type": "string"
        }
      ],
      "stateMutability": "view",
      "type": "function"
    },
    {
      "inputs": [
        {
          "internalType": "uint256",
          "name": "",
          "type": "uint256"
        }
      ],
      "name": "tokenIdsClaimed",
      "outputs": [
        {
          "internalType": "bool",
          "name": "",
          "type": "bool"
        }
      ],
      "stateMutability": "view",
      "type": "function"
    },
    {
      "inputs": [],
      "name": "tokenPrice",
      "outputs": [
        {
          "internalType": "uint256",
          "name": "",
          "type": "uint256"
        }
      ],
      "stateMutability": "view",
      "type": "function"
    },
    {
      "inputs": [],
      "name": "tokensPerNFT",
      "outputs": [
        {
          "internalType": "uint256",
          "name": "",
          "type": "uint256"
        }
      ],
      "stateMutability": "view",
      "type": "function"
    },
    {
      "inputs": [],
      "name": "totalSupply",
      "outputs": [
        {
          "internalType": "uint256",
          "name": "",
          "type": "uint256"
        }
      ],
      "stateMutability": "view",
      "type": "function"
    },
    {
      "inputs": [
        {
          "internalType": "address",
          "name": "to",
          "type": "address"
        },
        {
          "internalType": "uint256",
          "name": "amount",
          "type": "uint256"
        }
      ],
      "name": "transfer",
      "outputs": [
        {
          "internalType": "bool",
          "name": "",
          "type": "bool"
        }
      ],
      "stateMutability": "nonpayable",
      "type": "function"
    },
    {
      "inputs": [
        {
          "internalType": "address",
          "name": "from",
          "type": "address"
        },
        {
          "internalType": "address",
          "name": "to",
          "type": "address"
        },
        {
          "internalType": "uint256",
          "name": "amount",
          "type": "uint256"
        }
      ],
      "name": "transferFrom",
      "outputs": [
        {
          "internalType": "bool",
          "name": "",
          "type": "bool"
        }
      ],
      "stateMutability": "nonpayable",
      "type": "function"
    },
    {
      "inputs": [
        {
          "internalType": "address",
          "name": "newOwner",
          "type": "address"
        }
      ],
      "name": "transferOwnership",
      "outputs": [],
      "stateMutability": "nonpayable",
      "type": "function"
    },
    {
      "stateMutability": "payable",
      "type": "receive"
    }
  ],
  "bytecode": "0x60806040523480156200001157600080fd5b50604051620024c6380380620024c68339818101604052810190620000379190620002d4565b6040518060400160405280601281526020017f54726970707920447564657320546f6b656e00000000000000000000000000008152506040518060400160405280600381526020017f54445400000000000000000000000000000000000000000000000000000000008152508160039080519060200190620000bb9291906200020d565b508060049080519060200190620000d49291906200020d565b505050620000f7620000eb6200013f60201b60201c565b6200014760201b60201c565b80600660006101000a81548173ffffffffffffffffffffffffffffffffffffffff021916908373ffffffffffffffffffffffffffffffffffffffff16021790555050620003b3565b600033905090565b6000600560009054906101000a900473ffffffffffffffffffffffffffffffffffffffff16905081600560006101000a81548173ffffffffffffffffffffffffffffffffffffffff021916908373ffffffffffffffffffffffffffffffffffffffff1602179055508173ffffffffffffffffffffffffffffffffffffffff168173ffffffffffffffffffffffffffffffffffffffff167f8be0079c531659141344cd1fd0a4f28419497f9722a3daafe3b4186f6b6457e060405160405180910390a35050565b8280546200021b9062000334565b90600052602060002090601f0160209004810192826200023f57600085556200028b565b82601f106200025a57805160ff19168380011785556200028b565b828001600101855582156200028b579182015b828111156200028a5782518255916020019190600101906200026d565b5b5090506200029a91906200029e565b5090565b5b80821115620002b95760008160009055506001016200029f565b5090565b600081519050620002ce8162000399565b92915050565b600060208284031215620002e757600080fd5b6000620002f784828501620002bd565b91505092915050565b60006200030d8262000314565b9050919050565b600073ffffffffffffffffffffffffffffffffffffffff82169050919050565b600060028204905060018216806200034d57607f821691505b602082108114156200036457620003636200036a565b5b50919050565b7f4e487b7100000000000000000000000000000000000000000000000000000000600052602260045260246000fd5b620003a48162000300565b8114620003b057600080fd5b50565b61210380620003c36000396000f3fe6080604052600436106101235760003560e01c806370a08231116100a0578063a0712d6811610064578063a0712d68146103e3578063a457c2d7146103ff578063a9059cbb1461043c578063dd62ed3e14610479578063f2fde38b146104b65761012a565b806370a082311461030e578063715018a61461034b5780637ff9b596146103625780638da5cb5b1461038d57806395d89b41146103b85761012a565b8063313ce567116100e7578063313ce5671461022757806339509351146102525780634e71d92d1461028f5780635afcc2f5146102a65780635f3690af146102d15761012a565b806306fdde031461012c578063095ea7b31461015757806318160ddd1461019457806323b872dd146101bf5780632ab4d052146101fc5761012a565b3661012a57005b005b34801561013857600080fd5b506101416104df565b60405161014e91906118b5565b60405180910390f35b34801561016357600080fd5b5061017e60048036038101906101799190611569565b610571565b60405161018b919061189a565b60405180910390f35b3480156101a057600080fd5b506101a9610594565b6040516101b69190611a97565b60405180910390f35b3480156101cb57600080fd5b506101e660048036038101906101e1919061151a565b61059e565b6040516101f3919061189a565b60405180910390f35b34801561020857600080fd5b506102116105cd565b60405161021e9190611a97565b60405180910390f35b34801561023357600080fd5b5061023c6105db565b6040516102499190611ab2565b60405180910390f35b34801561025e57600080fd5b5061027960048036038101906102749190611569565b6105e4565b604051610286919061189a565b60405180910390f35b34801561029b57600080fd5b506102a461061b565b005b3480156102b257600080fd5b506102bb6108aa565b6040516102c89190611a97565b60405180910390f35b3480156102dd57600080fd5b506102f860048036038101906102f391906115a5565b6108b6565b604051610305919061189a565b60405180910390f35b34801561031a57600080fd5b50610335600480360381019061033091906114b5565b6108d6565b6040516103429190611a97565b60405180910390f35b34801561035757600080fd5b5061036061091e565b005b34801561036e57600080fd5b506103776109a6565b6040516103849190611a97565b60405180910390f35b34801561039957600080fd5b506103a26109b1565b6040516103af9190611856565b60405180910390f35b3480156103c457600080fd5b506103cd6109db565b6040516103da91906118b5565b60405180910390f35b6103fd60048036038101906103f891906115a5565b610a6d565b005b34801561040b57600080fd5b5061042660048036038101906104219190611569565b610b4d565b604051610433919061189a565b60405180910390f35b34801561044857600080fd5b50610463600480360381019061045e9190611569565b610bc4565b604051610470919061189a565b60405180910390f35b34801561048557600080fd5b506104a0600480360381019061049b91906114de565b610be7565b6040516104ad9190611a97565b60405180910390f35b3480156104c257600080fd5b506104dd60048036038101906104d891906114b5565b610c6e565b005b6060600380546104ee90611c21565b80601f016020809104026020016040519081016040528092919081815260200182805461051a90611c21565b80156105675780601f1061053c57610100808354040283529160200191610567565b820191906000526020600020905b81548152906001019060200180831161054a57829003601f168201915b5050505050905090565b60008061057c610d66565b9050610589818585610d6e565b600191505092915050565b6000600254905090565b6000806105a9610d66565b90506105b6858285610f39565b6105c1858585610fc5565b60019150509392505050565b69021e19e0c9bab240000081565b60006012905090565b6000806105ef610d66565b90506106108185856106018589610be7565b61060b9190611ae9565b610d6e565b600191505092915050565b60003390506000600660009054906101000a900473ffffffffffffffffffffffffffffffffffffffff1673ffffffffffffffffffffffffffffffffffffffff166370a08231836040518263ffffffff1660e01b815260040161067d9190611856565b60206040518083038186803b15801561069557600080fd5b505afa1580156106a9573d6000803e3d6000fd5b505050506040513d601f19601f820116820180604052508101906106cd91906115ce565b905060008111610712576040517f08c379a000000000000000000000000000000000000000000000000000000000815260040161070990611957565b60405180910390fd5b6000805b82811015610844576000600660009054906101000a900473ffffffffffffffffffffffffffffffffffffffff1673ffffffffffffffffffffffffffffffffffffffff16632f745c5986846040518363ffffffff1660e01b815260040161077d929190611871565b60206040518083038186803b15801561079557600080fd5b505afa1580156107a9573d6000803e3d6000fd5b505050506040513d601f19601f820116820180604052508101906107cd91906115ce565b90506007600082815260200190815260200160002060009054906101000a900460ff16610830576001836108019190611ae9565b925060016007600083815260200190815260200160002060006101000a81548160ff0219169083151502179055505b50808061083c90611c53565b915050610716565b5060008111610888576040517f08c379a000000000000000000000000000000000000000000000000000000000815260040161087f90611997565b60405180910390fd5b6108a533678ac7230489e80000836108a09190611b3f565b611246565b505050565b678ac7230489e8000081565b60076020528060005260406000206000915054906101000a900460ff1681565b60008060008373ffffffffffffffffffffffffffffffffffffffff1673ffffffffffffffffffffffffffffffffffffffff168152602001908152602001600020549050919050565b610926610d66565b73ffffffffffffffffffffffffffffffffffffffff166109446109b1565b73ffffffffffffffffffffffffffffffffffffffff161461099a576040517f08c379a0000000000000000000000000000000000000000000000000000000008152600401610991906119d7565b60405180910390fd5b6109a460006113a6565b565b66038d7ea4c6800081565b6000600560009054906101000a900473ffffffffffffffffffffffffffffffffffffffff16905090565b6060600480546109ea90611c21565b80601f0160208091040260200160405190810160405280929190818152602001828054610a1690611c21565b8015610a635780601f10610a3857610100808354040283529160200191610a63565b820191906000526020600020905b815481529060010190602001808311610a4657829003601f168201915b5050505050905090565b60008166038d7ea4c68000610a829190611b3f565b905080341015610ac7576040517f08c379a0000000000000000000000000000000000000000000000000000000008152600401610abe906118f7565b60405180910390fd5b6000670de0b6b3a764000083610add9190611b3f565b905069021e19e0c9bab240000081610af3610594565b610afd9190611ae9565b1115610b3e576040517f08c379a0000000000000000000000000000000000000000000000000000000008152600401610b35906119f7565b60405180910390fd5b610b483382611246565b505050565b600080610b58610d66565b90506000610b668286610be7565b905083811015610bab576040517f08c379a0000000000000000000000000000000000000000000000000000000008152600401610ba290611a57565b60405180910390fd5b610bb88286868403610d6e565b60019250505092915050565b600080610bcf610d66565b9050610bdc818585610fc5565b600191505092915050565b6000600160008473ffffffffffffffffffffffffffffffffffffffff1673ffffffffffffffffffffffffffffffffffffffff16815260200190815260200160002060008373ffffffffffffffffffffffffffffffffffffffff1673ffffffffffffffffffffffffffffffffffffffff16815260200190815260200160002054905092915050565b610c76610d66565b73ffffffffffffffffffffffffffffffffffffffff16610c946109b1565b73ffffffffffffffffffffffffffffffffffffffff1614610cea576040517f08c379a0000000000000000000000000000000000000000000000000000000008152600401610ce1906119d7565b60405180910390fd5b600073ffffffffffffffffffffffffffffffffffffffff168173ffffffffffffffffffffffffffffffffffffffff161415610d5a576040517f08c379a0000000000000000000000000000000000000000000000000000000008152600401610d5190611917565b60405180910390fd5b610d63816113a6565b50565b600033905090565b600073ffffffffffffffffffffffffffffffffffffffff168373ffffffffffffffffffffffffffffffffffffffff161415610dde576040517f08c379a0000000000000000000000000000000000000000000000000000000008152600401610dd590611a37565b60405180910390fd5b600073ffffffffffffffffffffffffffffffffffffffff168273ffffffffffffffffffffffffffffffffffffffff161415610e4e576040517f08c379a0000000000000000000000000000000000000000000000000000000008152600401610e4590611937565b60405180910390fd5b80600160008573ffffffffffffffffffffffffffffffffffffffff1673ffffffffffffffffffffffffffffffffffffffff16815260200190815260200160002060008473ffffffffffffffffffffffffffffffffffffffff1673ffffffffffffffffffffffffffffffffffffffff168152602001908152602001600020819055508173ffffffffffffffffffffffffffffffffffffffff168373ffffffffffffffffffffffffffffffffffffffff167f8c5be1e5ebec7d5bd14f71427d1e84f3dd0314c0f7b2291e5b200ac8c7c3b92583604051610f2c9190611a97565b60405180910390a3505050565b6000610f458484610be7565b90507fffffffffffffffffffffffffffffffffffffffffffffffffffffffffffffffff8114610fbf5781811015610fb1576040517f08c379a0000000000000000000000000000000000000000000000000000000008152600401610fa890611977565b60405180910390fd5b610fbe8484848403610d6e565b5b50505050565b600073ffffffffffffffffffffffffffffffffffffffff168373ffffffffffffffffffffffffffffffffffffffff161415611035576040517f08c379a000000000000000000000000000000000000000000000000000000000815260040161102c90611a17565b60405180910390fd5b600073ffffffffffffffffffffffffffffffffffffffff168273ffffffffffffffffffffffffffffffffffffffff1614156110a5576040517f08c379a000000000000000000000000000000000000000000000000000000000815260040161109c906118d7565b60405180910390fd5b6110b083838361146c565b60008060008573ffffffffffffffffffffffffffffffffffffffff1673ffffffffffffffffffffffffffffffffffffffff16815260200190815260200160002054905081811015611136576040517f08c379a000000000000000000000000000000000000000000000000000000000815260040161112d906119b7565b60405180910390fd5b8181036000808673ffffffffffffffffffffffffffffffffffffffff1673ffffffffffffffffffffffffffffffffffffffff16815260200190815260200160002081905550816000808573ffffffffffffffffffffffffffffffffffffffff1673ffffffffffffffffffffffffffffffffffffffff16815260200190815260200160002060008282546111c99190611ae9565b925050819055508273ffffffffffffffffffffffffffffffffffffffff168473ffffffffffffffffffffffffffffffffffffffff167fddf252ad1be2c89b69c2b068fc378daa952ba7f163c4a11628f55a4df523b3ef8460405161122d9190611a97565b60405180910390a3611240848484611471565b50505050565b600073ffffffffffffffffffffffffffffffffffffffff168273ffffffffffffffffffffffffffffffffffffffff1614156112b6576040517f08c379a00000000000000000000000000000000000000000000000000000000081526004016112ad90611a77565b60405180910390fd5b6112c26000838361146c565b80600260008282546112d49190611ae9565b92505081905550806000808473ffffffffffffffffffffffffffffffffffffffff1673ffffffffffffffffffffffffffffffffffffffff16815260200190815260200160002060008282546113299190611ae9565b925050819055508173ffffffffffffffffffffffffffffffffffffffff16600073ffffffffffffffffffffffffffffffffffffffff167fddf252ad1be2c89b69c2b068fc378daa952ba7f163c4a11628f55a4df523b3ef8360405161138e9190611a97565b60405180910390a36113a260008383611471565b5050565b6000600560009054906101000a900473ffffffffffffffffffffffffffffffffffffffff16905081600560006101000a81548173ffffffffffffffffffffffffffffffffffffffff021916908373ffffffffffffffffffffffffffffffffffffffff1602179055508173ffffffffffffffffffffffffffffffffffffffff168173ffffffffffffffffffffffffffffffffffffffff167f8be0079c531659141344cd1fd0a4f28419497f9722a3daafe3b4186f6b6457e060405160405180910390a35050565b505050565b505050565b6000813590506114858161209f565b92915050565b60008135905061149a816120b6565b92915050565b6000815190506114af816120b6565b92915050565b6000602082840312156114c757600080fd5b60006114d584828501611476565b91505092915050565b600080604083850312156114f157600080fd5b60006114ff85828601611476565b925050602061151085828601611476565b9150509250929050565b60008060006060848603121561152f57600080fd5b600061153d86828701611476565b935050602061154e86828701611476565b925050604061155f8682870161148b565b9150509250925092565b6000806040838503121561157c57600080fd5b600061158a85828601611476565b925050602061159b8582860161148b565b9150509250929050565b6000602082840312156115b757600080fd5b60006115c58482850161148b565b91505092915050565b6000602082840312156115e057600080fd5b60006115ee848285016114a0565b91505092915050565b61160081611b99565b82525050565b61160f81611bab565b82525050565b600061162082611acd565b61162a8185611ad8565b935061163a818560208601611bee565b61164381611cfa565b840191505092915050565b600061165b602383611ad8565b915061166682611d0b565b604082019050919050565b600061167e601783611ad8565b915061168982611d5a565b602082019050919050565b60006116a1602683611ad8565b91506116ac82611d83565b604082019050919050565b60006116c4602283611ad8565b91506116cf82611dd2565b604082019050919050565b60006116e7601e83611ad8565b91506116f282611e21565b602082019050919050565b600061170a601d83611ad8565b915061171582611e4a565b602082019050919050565b600061172d602783611ad8565b915061173882611e73565b604082019050919050565b6000611750602683611ad8565b915061175b82611ec2565b604082019050919050565b6000611773602083611ad8565b915061177e82611f11565b602082019050919050565b6000611796602783611ad8565b91506117a182611f3a565b604082019050919050565b60006117b9602583611ad8565b91506117c482611f89565b604082019050919050565b60006117dc602483611ad8565b91506117e782611fd8565b604082019050919050565b60006117ff602583611ad8565b915061180a82612027565b604082019050919050565b6000611822601f83611ad8565b915061182d82612076565b602082019050919050565b61184181611bd7565b82525050565b61185081611be1565b82525050565b600060208201905061186b60008301846115f7565b92915050565b600060408201905061188660008301856115f7565b6118936020830184611838565b9392505050565b60006020820190506118af6000830184611606565b92915050565b600060208201905081810360008301526118cf8184611615565b905092915050565b600060208201905081810360008301526118f08161164e565b9050919050565b6000602082019050818103600083015261191081611671565b9050919050565b6000602082019050818103600083015261193081611694565b9050919050565b60006020820190508181036000830152611950816116b7565b9050919050565b60006020820190508181036000830152611970816116da565b9050919050565b60006020820190508181036000830152611990816116fd565b9050919050565b600060208201905081810360008301526119b081611720565b9050919050565b600060208201905081810360008301526119d081611743565b9050919050565b600060208201905081810360008301526119f081611766565b9050919050565b60006020820190508181036000830152611a1081611789565b9050919050565b60006020820190508181036000830152611a30816117ac565b9050919050565b60006020820190508181036000830152611a50816117cf565b9050919050565b60006020820190508181036000830152611a70816117f2565b9050919050565b60006020820190508181036000830152611a9081611815565b9050919050565b6000602082019050611aac6000830184611838565b92915050565b6000602082019050611ac76000830184611847565b92915050565b600081519050919050565b600082825260208201905092915050565b6000611af482611bd7565b9150611aff83611bd7565b9250827fffffffffffffffffffffffffffffffffffffffffffffffffffffffffffffffff03821115611b3457611b33611c9c565b5b828201905092915050565b6000611b4a82611bd7565b9150611b5583611bd7565b9250817fffffffffffffffffffffffffffffffffffffffffffffffffffffffffffffffff0483118215151615611b8e57611b8d611c9c565b5b828202905092915050565b6000611ba482611bb7565b9050919050565b60008115159050919050565b600073ffffffffffffffffffffffffffffffffffffffff82169050919050565b6000819050919050565b600060ff82169050919050565b60005b83811015611c0c578082015181840152602081019050611bf1565b83811115611c1b576000848401525b50505050565b60006002820490506001821680611c3957607f821691505b60208210811415611c4d57611c4c611ccb565b5b50919050565b6000611c5e82611bd7565b91507fffffffffffffffffffffffffffffffffffffffffffffffffffffffffffffffff821415611c9157611c90611c9c565b5b600182019050919050565b7f4e487b7100000000000000000000000000000000000000000000000000000000600052601160045260246000fd5b7f4e487b7100000000000000000000000000000000000000000000000000000000600052602260045260246000fd5b6000601f19601f8301169050919050565b7f45524332303a207472616e7366657220746f20746865207a65726f206164647260008201527f6573730000000000000000000000000000000000000000000000000000000000602082015250565b7f45746865722073656e7420697320696e636f7272656374000000000000000000600082015250565b7f4f776e61626c653a206e6577206f776e657220697320746865207a65726f206160008201527f6464726573730000000000000000000000000000000000000000000000000000602082015250565b7f45524332303a20617070726f766520746f20746865207a65726f20616464726560008201527f7373000000000000000000000000000000000000000000000000000000000000602082015250565b7f596f7520646f6e74206f776e20616e79205370617274616e204e465427730000600082015250565b7f45524332303a20696e73756666696369656e7420616c6c6f77616e6365000000600082015250565b7f596f75206861766520616c726561647920636c61696d656420616c6c2074686560008201527f20746f6b656e7300000000000000000000000000000000000000000000000000602082015250565b7f45524332303a207472616e7366657220616d6f756e742065786365656473206260008201527f616c616e63650000000000000000000000000000000000000000000000000000602082015250565b7f4f776e61626c653a2063616c6c6572206973206e6f7420746865206f776e6572600082015250565b7f4578636565647320746865206d617820746f74616c20737570706c792061766160008201527f696c61626c652e00000000000000000000000000000000000000000000000000602082015250565b7f45524332303a207472616e736665722066726f6d20746865207a65726f20616460008201527f6472657373000000000000000000000000000000000000000000000000000000602082015250565b7f45524332303a20617070726f76652066726f6d20746865207a65726f2061646460008201527f7265737300000000000000000000000000000000000000000000000000000000602082015250565b7f45524332303a2064656372656173656420616c6c6f77616e63652062656c6f7760008201527f207a65726f000000000000000000000000000000000000000000000000000000602082015250565b7f45524332303a206d696e7420746f20746865207a65726f206164647265737300600082015250565b6120a881611b99565b81146120b357600080fd5b50565b6120bf81611bd7565b81146120ca57600080fd5b5056fea2646970667358221220301853abb3d5a8a62445a57b19149aeaaaa73d12a27c0e79a7955d164b05f51164736f6c63430008040033",
  "linkReferences": {},
  "deployedLinkReferences": {}
}